:100000000C9464000C948C000C948C000C948C0068
:100010000C948C000C948C000C948C000C948C0030
:100020000C948C000C948C000C948C000C948C0020
:100030000C948C000C948C000C948C000C948C0010
:100040000C947C060C948C000C94CB090C94FD0948
:100050000C948C000C948C000C948C000C948C00F0
:100060000C948C000C948C0000000008000201002D
:100070000003040700000000000000000102040863
:100080001020408001020408102001020408102002
:10009000040404040404040402020202020203032E
:1000A00003030303000000002300260029000000D2
:1000B0000000250028002B0000000000240027007D
:1000C0002A0012062D0A1C0611241FBECFEFD8E00D
:1000D000DEBFCDBF11E0A0E0B1E0E2E1F0E202C09E
:1000E00005900D92A034B107D9F722E0A0E4B1E069
:1000F00001C01D92AA32B207E1F710E0C6ECD0E0D1
:1001000004C02297FE010E94EF0CC23CD107C9F740
:100110000E94910C0C94FC0F0C9400000F931F9301
:10012000609175017091760106E010E027E030E003
:1001300045E050E084E591E00E942106409179017C
:1001400050917A0160E070E084E591E01F910F9199
:100150000C945806109268011092690110926A017D
:1001600010926B0110926C01089560E083E00E9490
:10017000E807E0916C01F0E0EA5DFE4F208141E08C
:1001800064E082E00E944708E0916B01F0E0EA5DE4
:10019000FE4F208141E064E082E00E944708E09148
:1001A0006A01F0E0EA5DFE4F208141E064E082E018
:1001B0000E944708E0916901F0E0EA5DFE4F20816E
:1001C00041E064E082E00E944708E0916801F0E0CD
:1001D000EA5DFE4F208141E064E082E00E94470832
:1001E00061E083E00C94E80788EC90E0909376015E
:1001F000809375018BE690E090937801809377016E
:1002000088EE93E090937A018093790110927B01BC
:1002100010927C0110927D0110927E0108950F933F
:100220001F93CF93DF9305E711E0C0E0D0E0CE014C
:100230000E949F0FF80181938F012196CA30D1054A
:10024000B1F7DF91CF911F910F910895EF92FF9237
:100250000F931F93CF93DF931F92CDB7DEB705E7C0
:1002600011E0E12CF12CF80161918F01C701698344
:100270000E949F0F6981681719F0C7010E94A70F9C
:10028000FFEFEF1AFF0A8AE0E816F10461F70F901A
:10029000DF91CF911F910F91FF90EF900895CF9331
:1002A000DF9300D000D000D0CDB7DEB766E070E0BD
:1002B0008CE491E00E942E0CFC018081813399F442
:1002C00026E030E042E050E06CE471E0CE010196BF
:1002D0000E94400CCE0101960E94850C709376011D
:1002E000609375011CC066E070E08CE491E00E94B0
:1002F0002E0CFC0180818233B9F426E030E042E02C
:1003000050E06CE471E0CE0101960E94400CCE01F9
:1003100001960E94850C7093780160937701CE015D
:1003200001960E94980A4AC066E070E08CE491E071
:100330000E942E0CFC018081833399F426E030E08A
:1003400042E050E06CE471E0CE0101960E94400C66
:10035000CE0101960E94850C70937A016093790119
:10036000DECF66E070E08CE491E00E942E0CFC0190
:1003700080818433B9F426E030E042E050E06CE460
:1003800071E0CE0101960E94400CCE0101960E94C0
:10039000850C60937B0170937C0180937D01909329
:1003A0007E01BDCF66E070E08CE491E00E942E0CEF
:1003B000FC018081893311F40E9426010E948E0085
:1003C00026960FB6F894DEBF0FBECDBFDF91CF915A
:1003D0000895EF92FF920F931F93CF93DF9300D076
:1003E00000D000D0CDB7DEB7AB01BC012AE0CE0112
:1003F00001960E94760BBE016F5F7F4F8CE491E007
:100400000E94520BCE0101960E94980A8CE6E82EBB
:1004100081E0F82E00E010E06091500170915101F0
:100420000617170788F461507109601B710B8CE483
:1004300091E00E942E0CFC0180818053F701829391
:100440007F010F5F1F4FE8CF6CE171E08CE491E01A
:100450000E945E0B26960FB6F894DEBF0FBECDBF8E
:10046000DF91CF911F910F91FF90EF90089581330D
:1004700029F460917501709176010DC0823329F4E1
:10048000609177017091780106C0833339F46091EF
:10049000790170917A0180E090E00AC0843359F4C8
:1004A00060917B0170917C0180917D0190917E0132
:1004B0000E94E90106C0893321F40E94F4000E94E1
:1004C000AA000C94B50061E070E084E591E00E9420
:1004D000540610924501109244011092710110923D
:1004E0007201109273011092740110926D011092BA
:1004F0006E0110926F011092700160E088E00E941E
:10050000AF0761E088E00E94E80760E089E00E94B0
:10051000AF0761E089E00E94E80761E08AE00E949D
:10052000AF0761E08AE00C94E807EF92FF920F9327
:100530001F9389E00E941E08892B71F410927101AB
:1005400010927201109273011092740182E090E097
:10055000909345018093440180914401909145011D
:100560008130910509F475C08230910509F479C094
:10057000892B09F0BCC080916D0190916E01A09112
:100580006F01B0917001181619061A061B060CF0BF
:10059000AEC060E070E084E591E00E94540668EC33
:1005A00070E080E090E00E94E90660E08AE00E944E
:1005B000E80760E070E084E591E00E945E068091CB
:1005C0006D0190916E01A0916F01B0917001B7FF24
:1005D00007C0B095A095909581959F4FAF4FBF4FA5
:1005E00040917B0150917C0160917D0170917E0171
:1005F0007C018D01E41AF50A060B170BA80197017F
:10060000E0926D01F0926E0100936F011093700102
:10061000A0917501B09176010E94E20C20917701C2
:100620003091780140E050E00E94C30C20937101AA
:1006300030937201409373015093740181E090E014
:100640009093450180934401109247011092460116
:100650004EC084E591E01F910F91FF90EF900C94B4
:10066000670684E591E00E94670680917101909190
:100670007201A0917301B09174010197A109B109B0
:100680008093710190937201A0937301B0937401F0
:10069000181619061A061B0654F10E94AA000E9499
:1006A000B50061E08AE00E94E80768EC70E080E055
:1006B00090E00E94E90661E070E084E591E00E942C
:1006C000540610926D0110926E0110926F011092FB
:1006D0007001109245011092440110925301109242
:1006E000520181E090E090934701809346011F9171
:1006F0000F91FF90EF90089510924A0110924901D6
:10070000109248010895FF920F931F93CF93DF93A8
:10071000F82E0E946907EC01873E9105D4F00AE0AB
:1007200010E08F2D0E946907C817D9070CF4EC015F
:1007300001501109B1F7C93983E0D8076CF4CD3CF9
:1007400081E0D80764F4C433D14064F484E090E0DD
:100750000BC080E090E008C081E090E005C082E03E
:1007600090E002C083E090E0DF91CF911F910F9164
:10077000FF9008951F93CF93DF93C0E0D0E010E087
:10078000111114C0CE010E94830390934301809302
:100790004201009759F0FC013197EE0FFF1FEE0F59
:1007A000FF1FEC0FFD1FEA5FFE4F10812196C43042
:1007B000D10531F7812FDF91CF911F91089580915D
:1007C0004801909149018130910581F030F08230EB
:1007D000910579F00397D1F008950E94BA038093B0
:1007E0004A018823B9F081E090E00BC082E090E0FC
:1007F00008C00E94BA0380934A0181110BC083E0B4
:1008000090E0909349018093480108951092490126
:1008100010924801089510925301109252011092C3
:1008200041011092400108950E940F010E948E0024
:100830000E940B040E9463020E947C0361E083E03B
:100840000E94AF0761E082E00E94AF0761E084E0B0
:100850000E94AF070E94B50081E090E090934701AD
:100860008093460126E040E855E260E070E088E8C9
:1008700091E00C946909CF93DF93809140019091AE
:100880004101892B09F0DCC0809148019091490118
:10089000029709F0D5C081E090E0909341018093E8
:1008A000400180914A01882309F479C08E3271F4A5
:1008B0008091520190915301049734F484E090E0C8
:1008C000909353018093520110924A0180914A0102
:1008D0008134E1F467E171E08CE491E00E945E0B09
:1008E000C8E6D1E069918CE491E00E94CF0B81E0F1
:1008F000CD36D807B9F781E080934B0110925301B0
:10090000109252010E94AA0010924A0180914A015D
:10091000823411F410924A0180914A018334B9F46F
:100920006AE171E08CE491E00E945E0B60916B01E2
:100930008CE491E00E94CF0B81E080934B011092F8
:100940005301109252010E94AA0010924A01809114
:100950004A018434E1F46DE171E08CE491E00E949D
:100960005E0BC8E6D1E069918CE491E00E94CF0B68
:1009700081E0CD36D807B9F781E080934B01109222
:100980005301109252010E94AA0010924A018091D4
:100990004A01833211F410924A010E94B50020915D
:1009A0004A01222309F44CC08091520190915301D5
:1009B0008230910501F174F40097B9F00197F1F5D7
:1009C00080916B0180936A01205320936B0182E038
:1009D00090E030C083309105E1F0049779F5205321
:1009E00020936C0185E090E025C0205320936B019B
:1009F00081E090E01FC080916A018093690180913D
:100A00006B0180936A01205320936B0183E090E097
:100A100011C0809169018093680180916A0180937F
:100A2000690180916B0180936A01205320936B01CF
:100A300084E090E090935301809352010E94B500AE
:100A40008091400190914101019751F480914801BA
:100A500090914901039721F41092410110924001B5
:100A6000DF91CF9108951F93CF93DF9300D000D0F3
:100A700000D0CDB7DEB78091460190914701892B18
:100A800021F00E94DF030E943B0480914B018823E8
:100A900009F4BCC067E171E0CE0101960E94060B2B
:100AA000BE016F5F7F4F8CE491E00E941F0C182FF6
:100AB000CE0101960E94980A112321F12091500144
:100AC0003091510142E050E06CE471E0CE010196BA
:100AD0000E94400CCE0101960E94850C60936D012E
:100AE00070936E0180936F0190937001CE01019617
:100AF0000E94980A6CE171E08CE491E00E945E0B28
:100B000010924B016AE171E0CE0101960E94060B42
:100B1000BE016F5F7F4F8CE491E00E941F0C182F85
:100B2000CE0101960E94980A112391F062E070E0D4
:100B30008CE491E00E942E0CFC0180810E9437021F
:100B40006CE171E08CE491E00E945E0B10924B012D
:100B500060E271E0CE0101960E94060BBE016F5F5C
:100B60007F4F8CE491E00E941F0C182FCE0101965C
:100B70000E94980A112361F00E94F4000E948E00E6
:100B80006CE171E08CE491E00E945E0B10924B01ED
:100B90006DE171E0CE0101960E94060BBE016F5F10
:100BA0007F4F8CE491E00E941F0C182FCE0101961C
:100BB0000E94980A112361F00E944F010E948E004A
:100BC0006CE171E08CE491E00E945E0B10924B01AD
:100BD00063E271E0CE0101960E94060BBE016F5FD9
:100BE0007F4F8CE491E00E941F0C182FCE010196DC
:100BF0000E94980A112351F00E9426016CE171E0D5
:100C00008CE491E00E945E0B10924B010E949502D1
:100C100026960FB6F894DEBF0FBECDBFDF91CF9101
:100C20001F91089584E591E00E9420066CE171E037
:100C30008CE491E00C94060B8CE491E00C94980AFF
:100C40000895EF92FF920F931F93CF93DF93EC01E0
:100C50007B01842F3B8B2A8B488B598B1F870E87F8
:100C600061E00E94AF0761E08A890E94AF0761E0FE
:100C70008E850E94AF07E114F10419F0FB82EA822D
:100C800004C088EC90E09B838A8340E25EE460E0ED
:100C900070E04C835D836E837F83DF91CF911F91E2
:100CA0000F91FF90EF900895FC0182890C94E80762
:100CB000FC0144835583668377830895672B11F481
:100CC00061E001C060E0FC0180890C94E807CF93EB
:100CD000DF93EC0161E08E850E94E8078C819D81A5
:100CE0000E94230760E08E850E94E8078C819D8129
:100CF000DF91CF910C9423071F920F920FB60F92A2
:100D000011242F933F938F939F93AF93BF93809121
:100D1000800190918101A0918201B0918301309175
:100D20007F0123E0230F2D3720F40196A11DB11D73
:100D300005C026E8230F0296A11DB11D20937F0157
:100D40008093800190938101A0938201B0938301ED
:100D50008091840190918501A0918601B0918701D5
:100D60000196A11DB11D8093840190938501A093EC
:100D70008601B0938701BF91AF919F918F913F9171
:100D80002F910F900FBE0F901F9018953FB7F894BA
:100D90008091840190918501A0918601B091870195
:100DA00026B5A89B05C02F3F19F00196A11DB11DC6
:100DB0003FBF6627782F892F9A2F620F711D811DE3
:100DC000911D42E0660F771F881F991F4A95D1F742
:100DD00008958F929F92AF92BF92CF92DF92EF923F
:100DE000FF926B017C010E94C6064B015C01C1149D
:100DF000D104E104F104F1F00E94A00C0E94C606A7
:100E0000681979098A099B09683E73408105910533
:100E100070F321E0C21AD108E108F10888EE880ECB
:100E200083E0981EA11CB11CC114D104E104F1049B
:100E300029F7DDCFFF90EF90DF90CF90BF90AF907C
:100E40009F908F9008958230910538F0880F991FF8
:100E5000880F991F05970197F1F70895789484B545
:100E6000826084BD84B5816084BD85B5826085BDA6
:100E700085B5816085BDEEE6F0E08081816080838C
:100E8000E1E8F0E01082808182608083808181606F
:100E90008083E0E8F0E0808181608083E1EBF0E036
:100EA000808184608083E0EBF0E0808181608083DA
:100EB000EAE7F0E0808184608083808182608083C3
:100EC0008081816080838081806880831092C100EE
:100ED00008958E3008F08E5087702091160190E4AE
:100EE000299F90011124822B80937C0080917A00AD
:100EF000806480937A0080917A0086FDFCCF809197
:100F000078002091790090E0922B0895833081F051
:100F100028F4813099F08230A1F008958730A9F04B
:100F20008830B9F08430D1F4809180008F7D03C087
:100F3000809180008F7780938000089584B58F77AB
:100F400002C084B58F7D84BD08958091B0008F77F5
:100F500003C08091B0008F7D8093B0000895CF933F
:100F6000DF9390E0FC01E458FF4F2491FC01E0572F
:100F7000FF4F8491882349F190E0880F991FFC016D
:100F8000E854FF4FA591B49182559F4FFC01C59144
:100F9000D4919FB7611108C0F8948C912095822359
:100FA0008C93888182230AC0623051F4F8948C912A
:100FB000322F309583238C938881822B888304C0C1
:100FC000F8948C91822B8C939FBFDF91CF910895E1
:100FD0000F931F93CF93DF931F92CDB7DEB7282FC8
:100FE00030E0F901E859FF4F8491F901E458FF4FCF
:100FF0001491F901E057FF4F04910023C9F08823B1
:1010000021F069830E9486076981E02FF0E0EE0FEE
:10101000FF1FE255FF4FA591B4919FB7F8948C91B3
:10102000611103C01095812301C0812B8C939FBF58
:101030000F90DF91CF911F910F910895CF93DF9380
:10104000282F30E0F901E859FF4F8491F901E45865
:10105000FF4FD491F901E057FF4FC491CC2391F099
:1010600081110E948607EC2FF0E0EE0FFF1FEC5578
:10107000FF4FA591B4912C912D2381E090E021F4B4
:1010800080E002C080E090E0DF91CF910895BF92B0
:10109000CF92DF92EF92FF920F931F93CF93DF9344
:1010A000C82ED62EB42EC7E0D0E0022F10E087E085
:1010B000E82EF12CB1100AC0F701EC1BFD0BB801B2
:1010C00002C075956795EA95E2F707C0B8010C2E46
:1010D00002C0759567950A94E2F7617077278C2DA9
:1010E0000E94E80761E08D2D0E94E80760E08D2DE9
:1010F0000E94E8072197F0F6DF91CF911F910F91A1
:10110000FF90EF90DF90CF90BF900895FC01818D0C
:10111000228D90E0805C9F4F821B91098F739927ED
:101120000895FC01918D828D981731F0828DE80F22
:10113000F11D858D90E008958FEF9FEF0895FC01DC
:10114000918D828D981761F0828DDF01A80FB11DFE
:101150005D968C91928D9F5F9F73928F90E0089522
:101160008FEF9FEF089583E29AE0892B49F080E0AA
:1011700090E0892B29F00E94230A81110C94000031
:101180000895FC01848DDF01A80FB11DA35ABF4F44
:101190002C91848D90E001968F739927848FA68976
:1011A000B7892C93A089B1898C9180648C93938D9D
:1011B000848D981306C00288F389E02D80818F7D8D
:1011C00080830895CF93DF93EC01888D8823C9F045
:1011D000EA89FB89808185FD05C0A889B9898C9140
:1011E00086FD0FC00FB607FCF5CF808185FFF2CFDB
:1011F000A889B9898C9185FFEDCFCE010E94C108E5
:10120000E7CFDF91CF910895CF92DF92FF920F93B6
:101210001F93CF93DF931F92CDB7DEB76C0181E0B0
:10122000D60158968C9358975B969C915B975C96E9
:101230008C915C97981307C05096ED91FC91519753
:10124000808185FD2EC0F601038D10E00F5F1F4FDA
:101250000F731127F02EF601848DF81211C00FB60E
:1012600007FCF9CFD6015096ED91FC915197808102
:1012700085FFF1CFC60169830E94C1086981EBCF68
:10128000838DE80FF11DE35AFF4F6083D6015B9613
:101290000C935B975296ED91FC91539780818062FD
:1012A0000CC0D6015696ED91FC91579760835096ED
:1012B000ED91FC91519780818064808381E090E082
:1012C0000F90DF91CF911F910F91FF90DF90CF9002
:1012D0000895BF92CF92DF92EF92FF92CF93DF9368
:1012E000EC016A017B01B22EE889F98982E08083F2
:1012F000411581EE580761057105A1F060E079E0C4
:101300008DE390E0A70196010E94A10C21503109C4
:10131000410951095695479537952795211580E143
:10132000380798F0E889F989108260E874E88EE15E
:1013300090E0A70196010E94A10C215031094109BA
:1013400051095695479537952795EC85FD8530834E
:10135000EE85FF852083188EEC89FD89B082EA89AD
:10136000FB89808180618083EA89FB898081886034
:101370008083EA89FB89808180688083EA89FB8990
:1013800080818F7D8083DF91CF91FF90EF90DF9000
:10139000CF90BF9008951F920F920FB60F92112415
:1013A0002F938F939F93EF93FF93E0919801F09188
:1013B00099018081E0919E01F0919F0182FD12C010
:1013C00090818091A1018F5F8F732091A20182177C
:1013D00051F0E091A101F0E0E857FE4F958F809326
:1013E000A10101C08081FF91EF919F918F912F9179
:1013F0000F900FBE0F901F9018951F920F920FB66F
:101400000F9211242F933F934F935F936F937F938A
:101410008F939F93AF93BF93EF93FF9388E891E0EF
:101420000E94C108FF91EF91BF91AF919F918F9161
:101430007F916F915F914F913F912F910F900FBED0
:101440000F901F90189588E891E00E94860821E08F
:10145000892B09F420E0822F089510928B011092BD
:101460008A0188EE93E0A0E0B0E080938C01909335
:101470008D01A0938E01B0938F0184E391E090934E
:1014800089018093880185EC90E090939501809389
:10149000940184EC90E0909397018093960180EC06
:1014A00090E0909399018093980181EC90E0909363
:1014B0009B0180939A0182EC90E090939D01809330
:1014C0009C0186EC90E090939F0180939E01109286
:1014D000A1011092A2011092A3011092A4010895FB
:1014E000CF92DF92EF92FF920F931F93CF93DF93F0
:1014F0007C016A01EB0100E010E00C151D0571F0A4
:101500006991D701ED91FC910190F081E02DC70127
:101510000995892B19F00F5F1F4FEFCFC801DF919D
:10152000CF911F910F91FF90EF90DF90CF90089592
:10153000FC01808191810C949A0DCF93DF93EC0193
:1015400088819981009711F00E949A0D1982188262
:101550001D821C821B821A82DF91CF9108950F9306
:101560001F93CF93DF93EC018B016F5F7F4F8881D7
:1015700099810E94290E009731F0998388831B83FB
:101580000A8381E001C080E0DF91CF911F910F912C
:101590000895CF93DF93EC0188819981892B29F0FD
:1015A0008A819B818617970760F4CE010E94AF0A5B
:1015B000882341F08C819D81892B19F4E881F98180
:1015C000108281E0DF91CF910895EF92FF920F9307
:1015D0001F93CF93DF93EC017B018A01BA010E9434
:1015E000C90A811104C0CE010E949D0A07C01D8353
:1015F0000C83B701888199810E94230FCE01DF916E
:10160000CF911F910F91FF90EF900895FC011182EF
:10161000108213821282158214826115710559F0AD
:10162000FB0101900020E9F7AF0141505109461B31
:10163000570B0C94E50A08950F931F93CF93DF93F4
:101640008C01EB01FC0180819181009799F042812E
:1016500053812C813D814217530750F06881798175
:101660000E94230F8C819D81F8019583848313C090
:101670000E949A0D88819981F801918380838A81E3
:101680009B81938382838C819D819583848319823E
:1016900018821B821A821D821C82DF91CF911F91BA
:1016A0000F910895CF93DF93EC018617970711F000
:1016B0000E941C0BCE01DF91CF910895CF93DF9351
:1016C000EC016115710561F0FB0101900020E9F763
:1016D000AF0141505109461B570B0E94E50A02C059
:1016E0000E949D0ACE01DF91CF9108950F931F9321
:1016F000CF93DF93CDB7DEB7A1970FB6F894DEBFD7
:101700000FBECDBF8C01CB01BA01F801118210824E
:10171000138212821582148230E0AE014F5F5F4F58
:101720000E94580FBE016F5F7F4FC8010E945E0B81
:10173000A1960FB6F894DEBF0FBECDBFDF91CF915B
:101740001F910F910895EF92FF920F931F93CF93E4
:10175000DF93EC017B010C811D816115710511F492
:1017600080E016C04115510591F0040F151FB80116
:101770000E94C90A8823A1F3288139818C819D8127
:10178000B701820F931F0E94230F1D830C8381E0FA
:10179000DF91CF911F910F91FF90EF900895EF92FD
:1017A000FF920F931F93CF93DF9300D000D0CDB75C
:1017B000DEB77C01862F4AE08E010F5F1F4FB80114
:1017C00090E00E94380FF80101900020E9F7AF0186
:1017D00041505109401B510BB801C7010E94A30B96
:1017E0000F900F900F900F90DF91CF911F910F915D
:1017F000FF90EF900895FA01DB0114964D915C91F2
:101800001597DC0114962D913C911597241B350BEF
:101810002E173F0788F08D919C91009769F0DB01AE
:101820006D917C916115710539F08E0F9F1F0E949B
:101830002A0F21E0892B09F020E0822F0895FC0176
:1018400044815581FB01248135814217530720F0E3
:1018500040E050E00C94FB0B80E00895FC01848193
:1018600095816817790720F480819181009729F488
:101870001092250285E292E00895860F971F089541
:10188000BF92CF92DF92EF92FF920F931F93CF936D
:10189000DF936C017B01EA0189012417350720F4ED
:1018A0008D2FE901042F182F6CE171E0C6010E9411
:1018B000060BD70114968D919C911597C817D907DF
:1018C000C8F48017910708F48C01D701ED91FC91C1
:1018D0001197E00FF11FB08010826D917C916C0F19
:1018E0007D1FC6010E945E0BD701ED91FC91E00FB8
:1018F000F11FB082C601DF91CF911F910F91FF9030
:10190000EF90DF90CF90BF900895FC01808191818E
:10191000009711F00C94F30E60E070E0CB01089595
:1019200008950E942E070E94900C0E941404C3EB9D
:10193000D8E00E9433052097E1F30E94B308F9CF65
:101940000895A1E21A2EAA1BBB1BFD010DC0AA1F00
:10195000BB1FEE1FFF1FA217B307E407F50720F018
:10196000A21BB30BE40BF50B661F771F881F991F93
:101970001A9469F760957095809590959B01AC01DC
:10198000BD01CF010895052E97FB1EF400940E941F
:10199000DA0C57FD07D00E94A10C07FC03D04EF4CF
:1019A0000C94DA0C50954095309521953F4F4F4F50
:1019B0005F4F089590958095709561957F4F8F4FFB
:1019C0009F4F08950E94F30CA59F900DB49F900D1A
:1019D000A49F800D911D11240895EE0FFF1F059007
:1019E000F491E02D0994A29FB001B39FC001A39F81
:1019F000700D811D1124911DB29F700D811D112448
:101A0000911D0895CF93DF938230910510F482E009
:101A100090E0E0912802F091290220E030E0A0E07F
:101A2000B0E0309739F14081518148175907B8F03B
:101A30004817590771F482819381109729F0139602
:101A40009C938E9312972CC0909329028093280226
:101A500027C02115310531F04217530718F0A901AD
:101A6000DB0101C0EF019A01BD01DF010280F381BA
:101A7000E02DD7CF21153105F9F0281B390B243083
:101A8000310580F48A819B816115710521F0FB018C
:101A90009383828304C09093290280932802FE01DD
:101AA000329644C0FE01E20FF31F819391932250BE
:101AB0003109398328833AC02091260230912702C8
:101AC000232B41F42091020130910301309327022E
:101AD000209326022091000130910101211531054A
:101AE00041F42DB73EB74091040150910501241BEC
:101AF000350BE0912602F0912702E217F307A0F4DC
:101B00002E1B3F0B2817390778F0AC014E5F5F4F53
:101B10002417350748F04E0F5F1F5093270240935C
:101B200026028193919302C0E0E0F0E0CF01DF91C3
:101B3000CF910895CF93DF93009709F487C0FC01FC
:101B4000329713821282C0912802D09129022097E5
:101B500081F420813181280F391F809126029091D4
:101B600027028217930779F5F0932702E093260264
:101B70006DC0DE0120E030E0AE17BF0750F41296D2
:101B80004D915C9113979D014115510509F1DA01C1
:101B9000F3CFB383A28340815181840F951F8A17AD
:101BA0009B0771F48D919C911197840F951F02965C
:101BB0009183808312968D919C9113979383828356
:101BC0002115310529F4F0932902E09328023EC043
:101BD000D9011396FC93EE9312974D915D91A40F4A
:101BE000B51FEA17FB0779F480819181840F951F57
:101BF0000296D90111969C938E93828193811396BC
:101C00009C938E931297E0E0F0E08A819B8100978D
:101C100019F0FE01EC01F9CFCE010296288139813D
:101C2000820F931F2091260230912702281739072F
:101C300069F4309729F4109229021092280202C008
:101C400013821282D0932702C0932602DF91CF9194
:101C50000895A0E0B0E0EFE2FEE00C94C90FEC01C3
:101C6000CB01209719F40E94020DB8C0FE01E60FC7
:101C7000F71F9E0122503109E217F30708F4ACC0A8
:101C8000D9010D911C91119706171707B8F005306F
:101C9000110508F49FC0A801445051094617570781
:101CA00008F498C002501109061B170B01931193F9
:101CB0006D937C93CF010E949A0D8CC05B01A01A9A
:101CC000B10A4E01800E911EA0912802B091290206
:101CD000612C712C60E070E0109709F449C0A815E0
:101CE000B905C9F5ED90FC901197670142E0C40E6B
:101CF000D11CCA14DB0478F147018A189B086401DF
:101D000042E0C40ED11C1296BC9012971396AC916F
:101D1000B5E0CB16D10440F0B282A38391828082D9
:101D2000D9018D939C9309C00E5F1F4F0E0D1F1D8F
:101D3000F90111830083EB2DFA2F6115710531F044
:101D4000DB011396FC93EE93129744C0F0932902A3
:101D5000E09328023FC06D917C911197661677063B
:101D600008F43B01BD0112960D90BC91A02DB4CF9B
:101D7000609126027091270268157905E9F46816CA
:101D80007906D0F4409100015091010141155105AF
:101D900041F44DB75EB76091040170910501461B97
:101DA000570BE417F507C0F4F0932702E0932602DF
:101DB000F901918380830EC00E94020D7C0100977F
:101DC00059F0A801BE010E941A0FCE010E949A0D7F
:101DD000C70104C0CE0102C080E090E0CDB7DEB7FD
:101DE000EEE00C94E50F1F93FC0199278827BC01B6
:101DF000E89411911032E9F3193010F01E30C8F355
:101E00001B3251F01D3249F4689406C00E94430F02
:101E1000610F711D811D911D119110531A30B0F386
:101E20003EF490958095709561957F4F8F4F9F4FB1
:101E30001F910895FB01DC0102C001900D924150F9
:101E40005040D8F70895FB01DC0101900D9200206D
:101E5000E1F70895FB01DC014150504030F08D91D5
:101E60000190801919F40020B9F7881B990B089587
:101E7000BB274A3031F4992322F4BDE29095819535
:101E80009F4F0C94860F592F482F372F262F660F00
:101E9000771F881F991F660F771F881F991F620F72
:101EA000731F841F951F660F771F881F991F089542
:101EB0002532310520F4223010F00C94630FFA0122
:101EC0001082CA010895BB27FA01A62F6217710577
:101ED00081059105330B30FB66F0AA27660F771F4B
:101EE000881F991FAA1FA21710F0A21B63953850D4
:101EF000A9F7A05DAA3308F0A95DA19336F7B11147
:101F0000B1931082CA010C94B50FBB27FB01552772
:101F1000AA27880F991FAA1FA41710F0A41B839546
:101F20005051B9F7A05DAA3308F0A95DA1930097BD
:101F300079F7B111B1931192CB010C94B50FF999C6
:101F4000FECF92BD81BDF89A992780B50895262FBE
:101F5000F999FECF1FBA92BD81BD20BD0FB6F8948E
:101F6000FA9AF99A0FBE01960895DC01FC01672FD9
:101F700071917723E1F7329704C07C916D93708360
:101F80006291AE17BF07C8F308952F923F924F9208
:101F90005F926F927F928F929F92AF92BF92CF92F9
:101FA000DF92EF92FF920F931F93CF93DF93CDB702
:101FB000DEB7CA1BDB0B0FB6F894DEBF0FBECDBF7A
:101FC00009942A88398848885F846E847D848C844B
:101FD0009B84AA84B984C884DF80EE80FD800C8154
:101FE0001B81AA81B981CE0FD11D0FB6F894DEBF37
:101FF0000FBECDBFED01089510E0C6ECD0E004C0E7
:10200000FE010E94EF0C2296C83CD107C9F7F89454
:02201000FFCF00
:1020120000002A02800031323341343536423738EB
:1020220039432E30234401234D002347002350001F
:102032002352002353005F063B2F666D7C077F67A8
:10204200000000000409700A86089F089108E2084F
:107E0000112484B714BE81FFF0D085E080938100F7
:107E100082E08093C00088E18093C10086E0809377
:107E2000C20080E18093C4008EE0C9D0259A86E02C
:107E300020E33CEF91E0309385002093840096BBD3
:107E4000B09BFECF1D9AA8958150A9F7CC24DD24C4
:107E500088248394B5E0AB2EA1E19A2EF3E0BF2EE7
:107E6000A2D0813461F49FD0082FAFD0023811F036
:107E7000013811F484E001C083E08DD089C08234E0
:107E800011F484E103C0853419F485E0A6D080C0E4
:107E9000853579F488D0E82EFF2485D0082F10E0AE
:107EA000102F00270E291F29000F111F8ED06801E7
:107EB0006FC0863521F484E090D080E0DECF843638
:107EC00009F040C070D06FD0082F6DD080E0C81688
:107ED00080E7D80618F4F601B7BEE895C0E0D1E017
:107EE00062D089930C17E1F7F0E0CF16F0E7DF06D8
:107EF00018F0F601B7BEE89568D007B600FCFDCFD4
:107F0000A601A0E0B1E02C9130E011968C91119780
:107F100090E0982F8827822B932B1296FA010C0160
:107F200087BEE89511244E5F5F4FF1E0A038BF0790
:107F300051F7F601A7BEE89507B600FCFDCF97BE46
:107F4000E89526C08437B1F42ED02DD0F82E2BD052
:107F50003CD0F601EF2C8F010F5F1F4F84911BD097
:107F6000EA94F801C1F70894C11CD11CFA94CF0C13
:107F7000D11C0EC0853739F428D08EE10CD085E9AC
:107F80000AD08FE07ACF813511F488E018D01DD067
:107F900080E101D065CF982F8091C00085FFFCCF94
:107FA0009093C60008958091C00087FFFCCF809118
:107FB000C00084FD01C0A8958091C6000895E0E648
:107FC000F0E098E1908380830895EDDF803219F02E
:107FD00088E0F5DFFFCF84E1DECF1F93182FE3DFCA
:107FE0001150E9F7F2DF1F91089580E0E8DFEE27F6
:047FF000FF270994CA
:027FFE00040479
:0400000300007E007B
:00000001FF
